{
  "contractName": "ManufacturerRole",
  "abi": [
    {
      "inputs": [],
      "payable": false,
      "stateMutability": "nonpayable",
      "type": "constructor"
    },
    {
      "anonymous": false,
      "inputs": [
        {
          "indexed": true,
          "internalType": "address",
          "name": "account",
          "type": "address"
        }
      ],
      "name": "ManufacturerAdded",
      "type": "event"
    },
    {
      "anonymous": false,
      "inputs": [
        {
          "indexed": true,
          "internalType": "address",
          "name": "account",
          "type": "address"
        }
      ],
      "name": "ManufacturerRemoved",
      "type": "event"
    },
    {
      "constant": true,
      "inputs": [
        {
          "internalType": "address",
          "name": "account",
          "type": "address"
        }
      ],
      "name": "isManufacturer",
      "outputs": [
        {
          "internalType": "bool",
          "name": "",
          "type": "bool"
        }
      ],
      "payable": false,
      "stateMutability": "view",
      "type": "function"
    },
    {
      "constant": false,
      "inputs": [
        {
          "internalType": "address",
          "name": "account",
          "type": "address"
        }
      ],
      "name": "addManufacturer",
      "outputs": [],
      "payable": false,
      "stateMutability": "nonpayable",
      "type": "function"
    },
    {
      "constant": false,
      "inputs": [],
      "name": "renounceManufacturer",
      "outputs": [],
      "payable": false,
      "stateMutability": "nonpayable",
      "type": "function"
    },
    {
      "constant": false,
      "inputs": [
        {
          "internalType": "address",
          "name": "account",
          "type": "address"
        }
      ],
      "name": "_addManufacturer",
      "outputs": [],
      "payable": false,
      "stateMutability": "nonpayable",
      "type": "function"
    }
  ],
  "bytecode": "0x608060405234801561001057600080fd5b506100203361002560201b60201c565b6101c4565b61003a60008261008060201b61024d1760201c565b8073ffffffffffffffffffffffffffffffffffffffff167f561138658ca49a8540dc70dcfe64c9026c1c5b9344642242dd6562970f9c127860405160405180910390a250565b600073ffffffffffffffffffffffffffffffffffffffff168173ffffffffffffffffffffffffffffffffffffffff1614156100ba57600080fd5b6100ca828261013260201b60201c565b156100d457600080fd5b60018260000160008373ffffffffffffffffffffffffffffffffffffffff1673ffffffffffffffffffffffffffffffffffffffff16815260200190815260200160002060006101000a81548160ff0219169083151502179055505050565b60008073ffffffffffffffffffffffffffffffffffffffff168273ffffffffffffffffffffffffffffffffffffffff16141561016d57600080fd5b8260000160008373ffffffffffffffffffffffffffffffffffffffff1673ffffffffffffffffffffffffffffffffffffffff16815260200190815260200160002060009054906101000a900460ff16905092915050565b61042a806101d36000396000f3fe608060405234801561001057600080fd5b506004361061004c5760003560e01c806317d4a491146100515780635f8a5afa146100ad57806395f91fe4146100f1578063de07f34e14610135575b600080fd5b6100936004803603602081101561006757600080fd5b81019080803573ffffffffffffffffffffffffffffffffffffffff16906020019092919050505061013f565b604051808215151515815260200191505060405180910390f35b6100ef600480360360208110156100c357600080fd5b81019080803573ffffffffffffffffffffffffffffffffffffffff169060200190929190505050610153565b005b6101336004803603602081101561010757600080fd5b81019080803573ffffffffffffffffffffffffffffffffffffffff16906020019092919050505061015f565b005b61013d6101b0565b005b600061014c6000836101bb565b9050919050565b61015c8161015f565b50565b61016a60008261024d565b8073ffffffffffffffffffffffffffffffffffffffff167f561138658ca49a8540dc70dcfe64c9026c1c5b9344642242dd6562970f9c127860405160405180910390a250565b6101b9336102f9565b565b60008073ffffffffffffffffffffffffffffffffffffffff168273ffffffffffffffffffffffffffffffffffffffff1614156101f657600080fd5b8260000160008373ffffffffffffffffffffffffffffffffffffffff1673ffffffffffffffffffffffffffffffffffffffff16815260200190815260200160002060009054906101000a900460ff16905092915050565b600073ffffffffffffffffffffffffffffffffffffffff168173ffffffffffffffffffffffffffffffffffffffff16141561028757600080fd5b61029182826101bb565b1561029b57600080fd5b60018260000160008373ffffffffffffffffffffffffffffffffffffffff1673ffffffffffffffffffffffffffffffffffffffff16815260200190815260200160002060006101000a81548160ff0219169083151502179055505050565b61030460008261034a565b8073ffffffffffffffffffffffffffffffffffffffff167f2fed5abf6a80d6dfe30b4895481b2fc5d7dce5f8f7b931832f4a2947d5040c7f60405160405180910390a250565b600073ffffffffffffffffffffffffffffffffffffffff168173ffffffffffffffffffffffffffffffffffffffff16141561038457600080fd5b61038e82826101bb565b61039757600080fd5b60008260000160008373ffffffffffffffffffffffffffffffffffffffff1673ffffffffffffffffffffffffffffffffffffffff16815260200190815260200160002060006101000a81548160ff021916908315150217905550505056fea265627a7a72315820bdaa44497628cf49cbbb50cb6c0a112f08d564bd2c3129a77bbb07380aac230c64736f6c63430005100032",
  "source": "// SPDX-License-Identifier: MIT\npragma solidity >=0.4.21 <0.7.0;\n// Import the library 'Roles'\nimport \"./Roles.sol\";\n\n// Define a contract 'ManufacturerRole' to manage this role - add, remove, check\ncontract ManufacturerRole{\n  //using Roles for Roles.Role;\n\n  // Define 2 events, one for Adding, and other for Removing\n  event ManufacturerAdded(address indexed account);\n  event ManufacturerRemoved(address indexed account);\n\n  // Define a struct 'manufacturers' by inheriting from 'Roles' library, struct Role\n  Roles.Role private manufacturers;\n\n  // In the constructor make the address that deploys this contract the 1st manufacturer\n  constructor() public {\n    _addManufacturer(msg.sender);\n  }\n\n  // Define a modifier that checks to see if msg.sender has the appropriate role\n  modifier onlyManufacturer() {\n    require(isManufacturer(msg.sender));\n    _;\n  }\n\n  // Define a function 'isManufacturer' to check this role\n  function isManufacturer(address account) public view returns (bool) {\n    return Roles.has(manufacturers, account);\n  }\n\n  // Define a function 'addManufacturer' that adds this role\n  function addManufacturer(address account) public   {\n    _addManufacturer(account);\n  }\n\n  // Define a function 'renounceManufacturer' to renounce this role\n  function renounceManufacturer() public {\n    _removeManufacturer(msg.sender);\n  }\n\n  // Define an internal function '_addManufacturer' to add this role, called by 'addManufacturer'\n  function _addManufacturer(address account) public\n   {\n    Roles.add(manufacturers, account);\n    emit ManufacturerAdded(account);\n  }\n\n  // Define an internal function '_removeManufacturer' to remove this role, called by 'removeManufacturer'\n  function _removeManufacturer(address account) internal {\n    Roles.remove(manufacturers, account);\n    emit ManufacturerRemoved(account);\n  }\n}",
  "sourcePath": "c:\\Users\\asus\\Desktop\\Capstone_final-master1\\Capstone_final-master\\contracts\\ManufacturerRole.sol",
  "compiler": {
    "name": "solc",
    "version": "0.5.16+commit.9c3226ce.Emscripten.clang"
  },
  "schemaVersion": "3.4.11",
  "updatedAt": "2022-12-20T05:16:06.132Z",
  "devdoc": {
    "methods": {}
  },
  "userdoc": {
    "methods": {}
  }
}