{
  "contractName": "SimpleStorage",
  "abi": [
    {
      "anonymous": false,
      "inputs": [
        {
          "indexed": true,
          "internalType": "address",
          "name": "account",
          "type": "address"
        }
      ],
      "name": "DistributorAdded",
      "type": "event"
    },
    {
      "anonymous": false,
      "inputs": [
        {
          "indexed": true,
          "internalType": "address",
          "name": "account",
          "type": "address"
        }
      ],
      "name": "DistributorRemoved",
      "type": "event"
    },
    {
      "anonymous": false,
      "inputs": [
        {
          "indexed": false,
          "internalType": "uint256",
          "name": "upc",
          "type": "uint256"
        }
      ],
      "name": "ForSale",
      "type": "event"
    },
    {
      "anonymous": false,
      "inputs": [
        {
          "indexed": false,
          "internalType": "uint256",
          "name": "upc",
          "type": "uint256"
        }
      ],
      "name": "Made",
      "type": "event"
    },
    {
      "anonymous": false,
      "inputs": [
        {
          "indexed": true,
          "internalType": "address",
          "name": "account",
          "type": "address"
        }
      ],
      "name": "ManufacturerAdded",
      "type": "event"
    },
    {
      "anonymous": false,
      "inputs": [
        {
          "indexed": true,
          "internalType": "address",
          "name": "account",
          "type": "address"
        }
      ],
      "name": "ManufacturerRemoved",
      "type": "event"
    },
    {
      "anonymous": false,
      "inputs": [
        {
          "indexed": false,
          "internalType": "uint256",
          "name": "upc",
          "type": "uint256"
        }
      ],
      "name": "Packed",
      "type": "event"
    },
    {
      "anonymous": false,
      "inputs": [
        {
          "indexed": true,
          "internalType": "address",
          "name": "account",
          "type": "address"
        }
      ],
      "name": "PatientAdded",
      "type": "event"
    },
    {
      "anonymous": false,
      "inputs": [
        {
          "indexed": true,
          "internalType": "address",
          "name": "account",
          "type": "address"
        }
      ],
      "name": "PatientRemoved",
      "type": "event"
    },
    {
      "anonymous": false,
      "inputs": [
        {
          "indexed": true,
          "internalType": "address",
          "name": "account",
          "type": "address"
        }
      ],
      "name": "PharmacistAdded",
      "type": "event"
    },
    {
      "anonymous": false,
      "inputs": [
        {
          "indexed": true,
          "internalType": "address",
          "name": "account",
          "type": "address"
        }
      ],
      "name": "PharmacistRemoved",
      "type": "event"
    },
    {
      "anonymous": false,
      "inputs": [
        {
          "indexed": false,
          "internalType": "uint256",
          "name": "upc",
          "type": "uint256"
        }
      ],
      "name": "Purchased",
      "type": "event"
    },
    {
      "anonymous": false,
      "inputs": [
        {
          "indexed": false,
          "internalType": "uint256",
          "name": "upc",
          "type": "uint256"
        }
      ],
      "name": "Soldtodistributor",
      "type": "event"
    },
    {
      "anonymous": false,
      "inputs": [
        {
          "indexed": false,
          "internalType": "uint256",
          "name": "upc",
          "type": "uint256"
        }
      ],
      "name": "recievedDistributor",
      "type": "event"
    },
    {
      "anonymous": false,
      "inputs": [
        {
          "indexed": false,
          "internalType": "uint256",
          "name": "upc",
          "type": "uint256"
        }
      ],
      "name": "recievedpharma",
      "type": "event"
    },
    {
      "anonymous": false,
      "inputs": [
        {
          "indexed": false,
          "internalType": "uint256",
          "name": "upc",
          "type": "uint256"
        }
      ],
      "name": "shippedbymanufacturer",
      "type": "event"
    },
    {
      "anonymous": false,
      "inputs": [
        {
          "indexed": false,
          "internalType": "uint256",
          "name": "upc",
          "type": "uint256"
        }
      ],
      "name": "shippedtoPharma",
      "type": "event"
    },
    {
      "anonymous": false,
      "inputs": [
        {
          "indexed": false,
          "internalType": "uint256",
          "name": "upc",
          "type": "uint256"
        }
      ],
      "name": "shippedtopatient",
      "type": "event"
    },
    {
      "anonymous": false,
      "inputs": [
        {
          "indexed": false,
          "internalType": "uint256",
          "name": "upc",
          "type": "uint256"
        }
      ],
      "name": "soldtoPharma",
      "type": "event"
    },
    {
      "anonymous": false,
      "inputs": [
        {
          "indexed": false,
          "internalType": "uint256",
          "name": "upc",
          "type": "uint256"
        }
      ],
      "name": "soldtopatient",
      "type": "event"
    },
    {
      "constant": false,
      "inputs": [
        {
          "internalType": "address",
          "name": "account",
          "type": "address"
        }
      ],
      "name": "_addManufacturer",
      "outputs": [],
      "payable": false,
      "stateMutability": "nonpayable",
      "type": "function"
    },
    {
      "constant": false,
      "inputs": [
        {
          "internalType": "address",
          "name": "account",
          "type": "address"
        }
      ],
      "name": "addDistributor",
      "outputs": [],
      "payable": false,
      "stateMutability": "nonpayable",
      "type": "function"
    },
    {
      "constant": false,
      "inputs": [
        {
          "internalType": "address",
          "name": "account",
          "type": "address"
        }
      ],
      "name": "addManufacturer",
      "outputs": [],
      "payable": false,
      "stateMutability": "nonpayable",
      "type": "function"
    },
    {
      "constant": false,
      "inputs": [
        {
          "internalType": "address",
          "name": "account",
          "type": "address"
        }
      ],
      "name": "addPatient",
      "outputs": [],
      "payable": false,
      "stateMutability": "nonpayable",
      "type": "function"
    },
    {
      "constant": false,
      "inputs": [
        {
          "internalType": "address",
          "name": "account",
          "type": "address"
        }
      ],
      "name": "addPharmacist",
      "outputs": [],
      "payable": false,
      "stateMutability": "nonpayable",
      "type": "function"
    },
    {
      "constant": true,
      "inputs": [
        {
          "internalType": "address",
          "name": "account",
          "type": "address"
        }
      ],
      "name": "isDistributor",
      "outputs": [
        {
          "internalType": "bool",
          "name": "",
          "type": "bool"
        }
      ],
      "payable": false,
      "stateMutability": "view",
      "type": "function"
    },
    {
      "constant": true,
      "inputs": [
        {
          "internalType": "address",
          "name": "account",
          "type": "address"
        }
      ],
      "name": "isManufacturer",
      "outputs": [
        {
          "internalType": "bool",
          "name": "",
          "type": "bool"
        }
      ],
      "payable": false,
      "stateMutability": "view",
      "type": "function"
    },
    {
      "constant": true,
      "inputs": [
        {
          "internalType": "address",
          "name": "account",
          "type": "address"
        }
      ],
      "name": "isPatient",
      "outputs": [
        {
          "internalType": "bool",
          "name": "",
          "type": "bool"
        }
      ],
      "payable": false,
      "stateMutability": "view",
      "type": "function"
    },
    {
      "constant": true,
      "inputs": [
        {
          "internalType": "address",
          "name": "account",
          "type": "address"
        }
      ],
      "name": "isPharmacist",
      "outputs": [
        {
          "internalType": "bool",
          "name": "",
          "type": "bool"
        }
      ],
      "payable": false,
      "stateMutability": "view",
      "type": "function"
    },
    {
      "constant": false,
      "inputs": [],
      "name": "renounceDistributor",
      "outputs": [],
      "payable": false,
      "stateMutability": "nonpayable",
      "type": "function"
    },
    {
      "constant": false,
      "inputs": [],
      "name": "renounceManufacturer",
      "outputs": [],
      "payable": false,
      "stateMutability": "nonpayable",
      "type": "function"
    },
    {
      "constant": false,
      "inputs": [],
      "name": "renouncePatient",
      "outputs": [],
      "payable": false,
      "stateMutability": "nonpayable",
      "type": "function"
    },
    {
      "constant": false,
      "inputs": [],
      "name": "renouncePharmacist",
      "outputs": [],
      "payable": false,
      "stateMutability": "nonpayable",
      "type": "function"
    },
    {
      "constant": false,
      "inputs": [
        {
          "internalType": "string",
          "name": "_name",
          "type": "string"
        },
        {
          "internalType": "uint256",
          "name": "_upc",
          "type": "uint256"
        },
        {
          "internalType": "address",
          "name": "_originManufacturerID",
          "type": "address"
        },
        {
          "internalType": "string",
          "name": "_originFactoryName",
          "type": "string"
        },
        {
          "internalType": "string",
          "name": "_originFactoryInformation",
          "type": "string"
        },
        {
          "internalType": "string",
          "name": "_originFactoryLatitude",
          "type": "string"
        },
        {
          "internalType": "string",
          "name": "_originFactoryLongitude",
          "type": "string"
        },
        {
          "internalType": "string",
          "name": "_medicineNotes",
          "type": "string"
        },
        {
          "internalType": "string",
          "name": "_history",
          "type": "string"
        }
      ],
      "name": "makeMedicine",
      "outputs": [],
      "payable": false,
      "stateMutability": "nonpayable",
      "type": "function"
    },
    {
      "constant": true,
      "inputs": [
        {
          "internalType": "string",
          "name": "_manuname",
          "type": "string"
        },
        {
          "internalType": "string",
          "name": "_name",
          "type": "string"
        }
      ],
      "name": "checkstockmanuf",
      "outputs": [
        {
          "internalType": "uint256",
          "name": "",
          "type": "uint256"
        }
      ],
      "payable": false,
      "stateMutability": "view",
      "type": "function"
    },
    {
      "constant": true,
      "inputs": [
        {
          "internalType": "string",
          "name": "_distname",
          "type": "string"
        },
        {
          "internalType": "string",
          "name": "_name",
          "type": "string"
        }
      ],
      "name": "checkstockdist",
      "outputs": [
        {
          "internalType": "uint256",
          "name": "",
          "type": "uint256"
        }
      ],
      "payable": false,
      "stateMutability": "view",
      "type": "function"
    },
    {
      "constant": true,
      "inputs": [
        {
          "internalType": "string",
          "name": "_pharmaname",
          "type": "string"
        },
        {
          "internalType": "string",
          "name": "_name",
          "type": "string"
        }
      ],
      "name": "checkstockpharma",
      "outputs": [
        {
          "internalType": "uint256",
          "name": "",
          "type": "uint256"
        }
      ],
      "payable": false,
      "stateMutability": "view",
      "type": "function"
    },
    {
      "constant": false,
      "inputs": [
        {
          "internalType": "uint256",
          "name": "_upc",
          "type": "uint256"
        },
        {
          "internalType": "string",
          "name": "_history",
          "type": "string"
        }
      ],
      "name": "packMedicine",
      "outputs": [],
      "payable": false,
      "stateMutability": "nonpayable",
      "type": "function"
    },
    {
      "constant": false,
      "inputs": [
        {
          "internalType": "uint256",
          "name": "_upc",
          "type": "uint256"
        },
        {
          "internalType": "string",
          "name": "_history",
          "type": "string"
        }
      ],
      "name": "forSale_bymanuf",
      "outputs": [],
      "payable": false,
      "stateMutability": "nonpayable",
      "type": "function"
    },
    {
      "constant": false,
      "inputs": [
        {
          "internalType": "uint256",
          "name": "_upc",
          "type": "uint256"
        },
        {
          "internalType": "string",
          "name": "_history",
          "type": "string"
        }
      ],
      "name": "soldToDistributor",
      "outputs": [],
      "payable": false,
      "stateMutability": "nonpayable",
      "type": "function"
    },
    {
      "constant": false,
      "inputs": [
        {
          "internalType": "uint256",
          "name": "_upc",
          "type": "uint256"
        },
        {
          "internalType": "string",
          "name": "_history",
          "type": "string"
        }
      ],
      "name": "shippedByManufacturer",
      "outputs": [],
      "payable": false,
      "stateMutability": "nonpayable",
      "type": "function"
    },
    {
      "constant": false,
      "inputs": [
        {
          "internalType": "uint256",
          "name": "_upc",
          "type": "uint256"
        },
        {
          "internalType": "string",
          "name": "_name",
          "type": "string"
        },
        {
          "internalType": "string",
          "name": "_long",
          "type": "string"
        },
        {
          "internalType": "string",
          "name": "_lat",
          "type": "string"
        },
        {
          "internalType": "address",
          "name": "_address",
          "type": "address"
        },
        {
          "internalType": "string",
          "name": "_history",
          "type": "string"
        }
      ],
      "name": "RecievedDistributor",
      "outputs": [],
      "payable": false,
      "stateMutability": "nonpayable",
      "type": "function"
    },
    {
      "constant": false,
      "inputs": [
        {
          "internalType": "uint256",
          "name": "_upc",
          "type": "uint256"
        },
        {
          "internalType": "string",
          "name": "_history",
          "type": "string"
        }
      ],
      "name": "SoldtoPharma",
      "outputs": [],
      "payable": false,
      "stateMutability": "nonpayable",
      "type": "function"
    },
    {
      "constant": false,
      "inputs": [
        {
          "internalType": "uint256",
          "name": "_upc",
          "type": "uint256"
        },
        {
          "internalType": "string",
          "name": "_history",
          "type": "string"
        }
      ],
      "name": "ShippedtoPharma",
      "outputs": [],
      "payable": false,
      "stateMutability": "nonpayable",
      "type": "function"
    },
    {
      "constant": false,
      "inputs": [
        {
          "internalType": "uint256",
          "name": "_upc",
          "type": "uint256"
        },
        {
          "internalType": "string",
          "name": "_name",
          "type": "string"
        },
        {
          "internalType": "string",
          "name": "_long",
          "type": "string"
        },
        {
          "internalType": "string",
          "name": "_lat",
          "type": "string"
        },
        {
          "internalType": "address",
          "name": "_address",
          "type": "address"
        },
        {
          "internalType": "string",
          "name": "_history",
          "type": "string"
        }
      ],
      "name": "Recieved_Pharma",
      "outputs": [],
      "payable": false,
      "stateMutability": "nonpayable",
      "type": "function"
    },
    {
      "constant": false,
      "inputs": [
        {
          "internalType": "uint256",
          "name": "_upc",
          "type": "uint256"
        },
        {
          "internalType": "string",
          "name": "_history",
          "type": "string"
        }
      ],
      "name": "Sold_to_Patient",
      "outputs": [],
      "payable": false,
      "stateMutability": "nonpayable",
      "type": "function"
    },
    {
      "constant": false,
      "inputs": [
        {
          "internalType": "uint256",
          "name": "_upc",
          "type": "uint256"
        },
        {
          "internalType": "string",
          "name": "_history",
          "type": "string"
        }
      ],
      "name": "Shipped_to_Patient",
      "outputs": [],
      "payable": false,
      "stateMutability": "nonpayable",
      "type": "function"
    },
    {
      "constant": true,
      "inputs": [
        {
          "internalType": "uint256",
          "name": "_upc",
          "type": "uint256"
        }
      ],
      "name": "checkmedicine",
      "outputs": [
        {
          "internalType": "bool",
          "name": "",
          "type": "bool"
        }
      ],
      "payable": false,
      "stateMutability": "view",
      "type": "function"
    },
    {
      "constant": false,
      "inputs": [
        {
          "internalType": "uint256",
          "name": "_upc",
          "type": "uint256"
        }
      ],
      "name": "claim",
      "outputs": [],
      "payable": false,
      "stateMutability": "nonpayable",
      "type": "function"
    },
    {
      "constant": true,
      "inputs": [
        {
          "internalType": "uint256",
          "name": "_upc",
          "type": "uint256"
        }
      ],
      "name": "fetchstate",
      "outputs": [
        {
          "internalType": "enum SimpleStorage.State",
          "name": "_medicineState",
          "type": "uint8"
        },
        {
          "internalType": "string",
          "name": "_history",
          "type": "string"
        }
      ],
      "payable": false,
      "stateMutability": "view",
      "type": "function"
    },
    {
      "constant": true,
      "inputs": [
        {
          "internalType": "uint256",
          "name": "_upc",
          "type": "uint256"
        }
      ],
      "name": "fetchCordinates",
      "outputs": [
        {
          "internalType": "string",
          "name": "manfcodlat",
          "type": "string"
        },
        {
          "internalType": "string",
          "name": "manfcodlong",
          "type": "string"
        },
        {
          "internalType": "string",
          "name": "distcodlat",
          "type": "string"
        },
        {
          "internalType": "string",
          "name": "distcodlong",
          "type": "string"
        },
        {
          "internalType": "string",
          "name": "phcodlat",
          "type": "string"
        },
        {
          "internalType": "string",
          "name": "phcodlong",
          "type": "string"
        }
      ],
      "payable": false,
      "stateMutability": "view",
      "type": "function"
    },
    {
      "constant": true,
      "inputs": [
        {
          "internalType": "uint256",
          "name": "_upc",
          "type": "uint256"
        }
      ],
      "name": "fetchMedicine",
      "outputs": [
        {
          "internalType": "address",
          "name": "mid",
          "type": "address"
        },
        {
          "internalType": "address",
          "name": "did",
          "type": "address"
        },
        {
          "internalType": "address",
          "name": "pid",
          "type": "address"
        },
        {
          "internalType": "string",
          "name": "mname",
          "type": "string"
        },
        {
          "internalType": "string",
          "name": "dname",
          "type": "string"
        },
        {
          "internalType": "string",
          "name": "pname",
          "type": "string"
        },
        {
          "internalType": "string",
          "name": "mnotes",
          "type": "string"
        }
      ],
      "payable": false,
      "stateMutability": "view",
      "type": "function"
    }
  ],
  "bytecode": "0x608060405262000015336200004e60201b60201c565b6200002633620000ac60201b60201c565b62000037336200010a60201b60201c565b62000048336200016860201b60201c565b6200030f565b62000066600082620001c660201b620051c91760201c565b8073ffffffffffffffffffffffffffffffffffffffff167f5a4264410853372bdd7255ebc9624cb523fc039cd6f9f1855165194738125f6360405160405180910390a250565b620000c4600182620001c660201b620051c91760201c565b8073ffffffffffffffffffffffffffffffffffffffff167fa58cff07db0adda3ab7a40bd2f18ab57210bf38391a52ffd2e8eee6b8bdec71a60405160405180910390a250565b62000122600282620001c660201b620051c91760201c565b8073ffffffffffffffffffffffffffffffffffffffff167f561138658ca49a8540dc70dcfe64c9026c1c5b9344642242dd6562970f9c127860405160405180910390a250565b62000180600382620001c660201b620051c91760201c565b8073ffffffffffffffffffffffffffffffffffffffff167fddbf200aa634dc3fb81cfd68583dd1040d1c751d335e1d86b631bde3e977fea860405160405180910390a250565b600073ffffffffffffffffffffffffffffffffffffffff168173ffffffffffffffffffffffffffffffffffffffff1614156200020157600080fd5b6200021382826200027c60201b60201c565b156200021e57600080fd5b60018260000160008373ffffffffffffffffffffffffffffffffffffffff1673ffffffffffffffffffffffffffffffffffffffff16815260200190815260200160002060006101000a81548160ff0219169083151502179055505050565b60008073ffffffffffffffffffffffffffffffffffffffff168273ffffffffffffffffffffffffffffffffffffffff161415620002b857600080fd5b8260000160008373ffffffffffffffffffffffffffffffffffffffff1673ffffffffffffffffffffffffffffffffffffffff16815260200190815260200160002060009054906101000a900460ff16905092915050565b61565a806200031f6000396000f3fe608060405234801561001057600080fd5b50600436106101f05760003560e01c806382946ee21161010f5780639e1a2f30116100a2578063dbdf8b7511610071578063dbdf8b7514611943578063de07f34e146119ff578063e4f4aa2a14611a09578063f3a1230714611cb3576101f0565b80639e1a2f30146116b0578063c09e269314611775578063d1c6a24d146117b9578063d759283a1461187e576101f0565b80638f0c86fa116100de5780638f0c86fa146114ef5780638f5d97f11461154b5780638f9c79ed1461161057806395f91fe41461166c576101f0565b806382946ee214610fbe5780638562adb61461101a578063898513e4146111805780638c2891ce1461142a576101f0565b80635ae632471161018757806370b184da1161015657806370b184da14610d455780637250e22414610e0a5780637407ab4814610e4e57806381a07c3614610fb4576101f0565b80635ae6324714610ca95780635f8a5afa14610cb3578063644241db14610cf75780636d263ceb14610d01576101f0565b8063379607f5116101c3578063379607f51461086d5780633e2d5e2b1461089b5780634ab7e29d146109605780634fa75b7c14610a25576101f0565b8063027b3cbc146101f557806317d4a4911461023b5780631e110c0a146102975780631ff6153114610707575b600080fd5b6102216004803603602081101561020b57600080fd5b8101908080359060200190929190505050611f76565b604051808215151515815260200191505060405180910390f35b61027d6004803603602081101561025157600080fd5b81019080803573ffffffffffffffffffffffffffffffffffffffff169060200190929190505050611fbb565b604051808215151515815260200191505060405180910390f35b61070560048036036101208110156102ae57600080fd5b81019080803590602001906401000000008111156102cb57600080fd5b8201836020820111156102dd57600080fd5b803590602001918460018302840111640100000000831117156102ff57600080fd5b91908080601f016020809104026020016040519081016040528093929190818152602001838380828437600081840152601f19601f82011690508083019250505050505050919291929080359060200190929190803573ffffffffffffffffffffffffffffffffffffffff1690602001909291908035906020019064010000000081111561038c57600080fd5b82018360208201111561039e57600080fd5b803590602001918460018302840111640100000000831117156103c057600080fd5b91908080601f016020809104026020016040519081016040528093929190818152602001838380828437600081840152601f19601f8201169050808301925050505050505091929192908035906020019064010000000081111561042357600080fd5b82018360208201111561043557600080fd5b8035906020019184600183028401116401000000008311171561045757600080fd5b91908080601f016020809104026020016040519081016040528093929190818152602001838380828437600081840152601f19601f820116905080830192505050505050509192919290803590602001906401000000008111156104ba57600080fd5b8201836020820111156104cc57600080fd5b803590602001918460018302840111640100000000831117156104ee57600080fd5b91908080601f016020809104026020016040519081016040528093929190818152602001838380828437600081840152601f19601f8201169050808301925050505050505091929192908035906020019064010000000081111561055157600080fd5b82018360208201111561056357600080fd5b8035906020019184600183028401116401000000008311171561058557600080fd5b91908080601f016020809104026020016040519081016040528093929190818152602001838380828437600081840152601f19601f820116905080830192505050505050509192919290803590602001906401000000008111156105e857600080fd5b8201836020820111156105fa57600080fd5b8035906020019184600183028401116401000000008311171561061c57600080fd5b91908080601f016020809104026020016040519081016040528093929190818152602001838380828437600081840152601f19601f8201169050808301925050505050505091929192908035906020019064010000000081111561067f57600080fd5b82018360208201111561069157600080fd5b803590602001918460018302840111640100000000831117156106b357600080fd5b91908080601f016020809104026020016040519081016040528093929190818152602001838380828437600081840152601f19601f820116905080830192505050505050509192919290505050611fcf565b005b6108576004803603604081101561071d57600080fd5b810190808035906020019064010000000081111561073a57600080fd5b82018360208201111561074c57600080fd5b8035906020019184600183028401116401000000008311171561076e57600080fd5b91908080601f016020809104026020016040519081016040528093929190818152602001838380828437600081840152601f19601f820116905080830192505050505050509192919290803590602001906401000000008111156107d157600080fd5b8201836020820111156107e357600080fd5b8035906020019184600183028401116401000000008311171561080557600080fd5b91908080601f016020809104026020016040519081016040528093929190818152602001838380828437600081840152601f19601f820116905080830192505050505050509192919290505050612838565b6040518082815260200191505060405180910390f35b6108996004803603602081101561088357600080fd5b81019080803590602001909291905050506128d0565b005b61095e600480360360408110156108b157600080fd5b8101908080359060200190929190803590602001906401000000008111156108d857600080fd5b8201836020820111156108ea57600080fd5b8035906020019184600183028401116401000000008311171561090c57600080fd5b91908080601f016020809104026020016040519081016040528093929190818152602001838380828437600081840152601f19601f820116905080830192505050505050509192919290505050612902565b005b610a236004803603604081101561097657600080fd5b81019080803590602001909291908035906020019064010000000081111561099d57600080fd5b8201836020820111156109af57600080fd5b803590602001918460018302840111640100000000831117156109d157600080fd5b91908080601f016020809104026020016040519081016040528093929190818152602001838380828437600081840152601f19601f820116905080830192505050505050509192919290505050612ab7565b005b610a5160048036036020811015610a3b57600080fd5b8101908080359060200190929190505050612c6c565b604051808873ffffffffffffffffffffffffffffffffffffffff1673ffffffffffffffffffffffffffffffffffffffff1681526020018773ffffffffffffffffffffffffffffffffffffffff1673ffffffffffffffffffffffffffffffffffffffff1681526020018673ffffffffffffffffffffffffffffffffffffffff1673ffffffffffffffffffffffffffffffffffffffff16815260200180602001806020018060200180602001858103855289818151815260200191508051906020019080838360005b83811015610b33578082015181840152602081019050610b18565b50505050905090810190601f168015610b605780820380516001836020036101000a031916815260200191505b50858103845288818151815260200191508051906020019080838360005b83811015610b99578082015181840152602081019050610b7e565b50505050905090810190601f168015610bc65780820380516001836020036101000a031916815260200191505b50858103835287818151815260200191508051906020019080838360005b83811015610bff578082015181840152602081019050610be4565b50505050905090810190601f168015610c2c5780820380516001836020036101000a031916815260200191505b50858103825286818151815260200191508051906020019080838360005b83811015610c65578082015181840152602081019050610c4a565b50505050905090810190601f168015610c925780820380516001836020036101000a031916815260200191505b509b50505050505050505050505060405180910390f35b610cb161300f565b005b610cf560048036036020811015610cc957600080fd5b81019080803573ffffffffffffffffffffffffffffffffffffffff16906020019092919050505061301a565b005b610cff613026565b005b610d4360048036036020811015610d1757600080fd5b81019080803573ffffffffffffffffffffffffffffffffffffffff169060200190929190505050613031565b005b610e0860048036036040811015610d5b57600080fd5b810190808035906020019092919080359060200190640100000000811115610d8257600080fd5b820183602082011115610d9457600080fd5b80359060200191846001830284011164010000000083111715610db657600080fd5b91908080601f016020809104026020016040519081016040528093929190818152602001838380828437600081840152601f19601f82011690508083019250505050505050919291929050505061304f565b005b610e4c60048036036020811015610e2057600080fd5b81019080803573ffffffffffffffffffffffffffffffffffffffff169060200190929190505050613204565b005b610f9e60048036036040811015610e6457600080fd5b8101908080359060200190640100000000811115610e8157600080fd5b820183602082011115610e9357600080fd5b80359060200191846001830284011164010000000083111715610eb557600080fd5b91908080601f016020809104026020016040519081016040528093929190818152602001838380828437600081840152601f19601f82011690508083019250505050505050919291929080359060200190640100000000811115610f1857600080fd5b820183602082011115610f2a57600080fd5b80359060200191846001830284011164010000000083111715610f4c57600080fd5b91908080601f016020809104026020016040519081016040528093929190818152602001838380828437600081840152601f19601f820116905080830192505050505050509192919290505050613222565b6040518082815260200191505060405180910390f35b610fbc6132ba565b005b61100060048036036020811015610fd457600080fd5b81019080803573ffffffffffffffffffffffffffffffffffffffff1690602001909291905050506132c5565b604051808215151515815260200191505060405180910390f35b61116a6004803603604081101561103057600080fd5b810190808035906020019064010000000081111561104d57600080fd5b82018360208201111561105f57600080fd5b8035906020019184600183028401116401000000008311171561108157600080fd5b91908080601f016020809104026020016040519081016040528093929190818152602001838380828437600081840152601f19601f820116905080830192505050505050509192919290803590602001906401000000008111156110e457600080fd5b8201836020820111156110f657600080fd5b8035906020019184600183028401116401000000008311171561111857600080fd5b91908080601f016020809104026020016040519081016040528093929190818152602001838380828437600081840152601f19601f8201169050808301925050505050505091929192905050506132d9565b6040518082815260200191505060405180910390f35b611428600480360360c081101561119657600080fd5b8101908080359060200190929190803590602001906401000000008111156111bd57600080fd5b8201836020820111156111cf57600080fd5b803590602001918460018302840111640100000000831117156111f157600080fd5b91908080601f016020809104026020016040519081016040528093929190818152602001838380828437600081840152601f19601f8201169050808301925050505050505091929192908035906020019064010000000081111561125457600080fd5b82018360208201111561126657600080fd5b8035906020019184600183028401116401000000008311171561128857600080fd5b91908080601f016020809104026020016040519081016040528093929190818152602001838380828437600081840152601f19601f820116905080830192505050505050509192919290803590602001906401000000008111156112eb57600080fd5b8201836020820111156112fd57600080fd5b8035906020019184600183028401116401000000008311171561131f57600080fd5b91908080601f016020809104026020016040519081016040528093929190818152602001838380828437600081840152601f19601f820116905080830192505050505050509192919290803573ffffffffffffffffffffffffffffffffffffffff169060200190929190803590602001906401000000008111156113a257600080fd5b8201836020820111156113b457600080fd5b803590602001918460018302840111640100000000831117156113d657600080fd5b91908080601f016020809104026020016040519081016040528093929190818152602001838380828437600081840152601f19601f820116905080830192505050505050509192919290505050613371565b005b6114ed6004803603604081101561144057600080fd5b81019080803590602001909291908035906020019064010000000081111561146757600080fd5b82018360208201111561147957600080fd5b8035906020019184600183028401116401000000008311171561149b57600080fd5b91908080601f016020809104026020016040519081016040528093929190818152602001838380828437600081840152601f19601f820116905080830192505050505050509192919290505050613946565b005b6115316004803603602081101561150557600080fd5b81019080803573ffffffffffffffffffffffffffffffffffffffff169060200190929190505050613afb565b604051808215151515815260200191505060405180910390f35b61160e6004803603604081101561156157600080fd5b81019080803590602001909291908035906020019064010000000081111561158857600080fd5b82018360208201111561159a57600080fd5b803590602001918460018302840111640100000000831117156115bc57600080fd5b91908080601f016020809104026020016040519081016040528093929190818152602001838380828437600081840152601f19601f820116905080830192505050505050509192919290505050613b0f565b005b6116526004803603602081101561162657600080fd5b81019080803573ffffffffffffffffffffffffffffffffffffffff169060200190929190505050613cc4565b604051808215151515815260200191505060405180910390f35b6116ae6004803603602081101561168257600080fd5b81019080803573ffffffffffffffffffffffffffffffffffffffff169060200190929190505050613cd8565b005b611773600480360360408110156116c657600080fd5b8101908080359060200190929190803590602001906401000000008111156116ed57600080fd5b8201836020820111156116ff57600080fd5b8035906020019184600183028401116401000000008311171561172157600080fd5b91908080601f016020809104026020016040519081016040528093929190818152602001838380828437600081840152601f19601f820116905080830192505050505050509192919290505050613d29565b005b6117b76004803603602081101561178b57600080fd5b81019080803573ffffffffffffffffffffffffffffffffffffffff169060200190929190505050613ede565b005b61187c600480360360408110156117cf57600080fd5b8101908080359060200190929190803590602001906401000000008111156117f657600080fd5b82018360208201111561180857600080fd5b8035906020019184600183028401116401000000008311171561182a57600080fd5b91908080601f016020809104026020016040519081016040528093929190818152602001838380828437600081840152601f19601f820116905080830192505050505050509192919290505050613efc565b005b6119416004803603604081101561189457600080fd5b8101908080359060200190929190803590602001906401000000008111156118bb57600080fd5b8201836020820111156118cd57600080fd5b803590602001918460018302840111640100000000831117156118ef57600080fd5b91908080601f016020809104026020016040519081016040528093929190818152602001838380828437600081840152601f19601f8201169050808301925050505050505091929192905050506140b1565b005b61196f6004803603602081101561195957600080fd5b8101908080359060200190929190505050614265565b6040518083600a81111561197f57fe5b60ff16815260200180602001828103825283818151815260200191508051906020019080838360005b838110156119c35780820151818401526020810190506119a8565b50505050905090810190601f1680156119f05780820380516001836020036101000a031916815260200191505b50935050505060405180910390f35b611a07614357565b005b611cb1600480360360c0811015611a1f57600080fd5b810190808035906020019092919080359060200190640100000000811115611a4657600080fd5b820183602082011115611a5857600080fd5b80359060200191846001830284011164010000000083111715611a7a57600080fd5b91908080601f016020809104026020016040519081016040528093929190818152602001838380828437600081840152601f19601f82011690508083019250505050505050919291929080359060200190640100000000811115611add57600080fd5b820183602082011115611aef57600080fd5b80359060200191846001830284011164010000000083111715611b1157600080fd5b91908080601f016020809104026020016040519081016040528093929190818152602001838380828437600081840152601f19601f82011690508083019250505050505050919291929080359060200190640100000000811115611b7457600080fd5b820183602082011115611b8657600080fd5b80359060200191846001830284011164010000000083111715611ba857600080fd5b91908080601f016020809104026020016040519081016040528093929190818152602001838380828437600081840152601f19601f820116905080830192505050505050509192919290803573ffffffffffffffffffffffffffffffffffffffff16906020019092919080359060200190640100000000811115611c2b57600080fd5b820183602082011115611c3d57600080fd5b80359060200191846001830284011164010000000083111715611c5f57600080fd5b91908080601f016020809104026020016040519081016040528093929190818152602001838380828437600081840152601f19601f820116905080830192505050505050509192919290505050614362565b005b611cdf60048036036020811015611cc957600080fd5b8101908080359060200190929190505050614a7e565b6040518080602001806020018060200180602001806020018060200187810387528d818151815260200191508051906020019080838360005b83811015611d33578082015181840152602081019050611d18565b50505050905090810190601f168015611d605780820380516001836020036101000a031916815260200191505b5087810386528c818151815260200191508051906020019080838360005b83811015611d99578082015181840152602081019050611d7e565b50505050905090810190601f168015611dc65780820380516001836020036101000a031916815260200191505b5087810385528b818151815260200191508051906020019080838360005b83811015611dff578082015181840152602081019050611de4565b50505050905090810190601f168015611e2c5780820380516001836020036101000a031916815260200191505b5087810384528a818151815260200191508051906020019080838360005b83811015611e65578082015181840152602081019050611e4a565b50505050905090810190601f168015611e925780820380516001836020036101000a031916815260200191505b50878103835289818151815260200191508051906020019080838360005b83811015611ecb578082015181840152602081019050611eb0565b50505050905090810190601f168015611ef85780820380516001836020036101000a031916815260200191505b50878103825288818151815260200191508051906020019080838360005b83811015611f31578082015181840152602081019050611f16565b50505050905090810190601f168015611f5e5780820380516001836020036101000a031916815260200191505b509c5050505050505050505050505060405180910390f35b6000600115156004600084815260200190815260200160002060140160009054906101000a900460ff1615151415611fb15760019050611fb6565b600090505b919050565b6000611fc8600283614eda565b9050919050565b611fd833611fbb565b611fe157600080fd5b611fe96153c2565b604051806102c001604052806001600b540181526020018a81526020018973ffffffffffffffffffffffffffffffffffffffff1681526020018973ffffffffffffffffffffffffffffffffffffffff1681526020018881526020018781526020018681526020018581526020018a600b540181526020018481526020018b81526020016000600a81111561207957fe5b8152602001600073ffffffffffffffffffffffffffffffffffffffff168152602001600073ffffffffffffffffffffffffffffffffffffffff168152602001600073ffffffffffffffffffffffffffffffffffffffff1681526020016040518060400160405280600181526020017f200000000000000000000000000000000000000000000000000000000000000081525081526020016040518060400160405280600181526020017f200000000000000000000000000000000000000000000000000000000000000081525081526020016040518060400160405280600181526020017f200000000000000000000000000000000000000000000000000000000000000081525081526020016040518060400160405280600181526020017f200000000000000000000000000000000000000000000000000000000000000081525081526020016040518060400160405280600181526020017f200000000000000000000000000000000000000000000000000000000000000081525081526020016040518060400160405280600181526020017f20000000000000000000000000000000000000000000000000000000000000008152508152602001600115158152509050606061224c888c614f6c565b9050600115156006826040518082805190602001908083835b602083106122885780518252602082019150602081019050602083039250612265565b6001836020036101000a038019825116818451168082178552505050505050905001915050908152602001604051809103902060010160009054906101000a900460ff16151514156123b95760016006826040518082805190602001908083835b6020831061230c57805182526020820191506020810190506020830392506122e9565b6001836020036101000a038019825116818451168082178552505050505050905001915050908152602001604051809103902060000154016006826040518082805190602001908083835b6020831061237a5780518252602082019150602081019050602083039250612357565b6001836020036101000a038019825116818451168082178552505050505050905001915050908152602001604051809103902060000181905550612475565b6123c16154e4565b604051806040016040528060018152602001600115158152509050806006836040518082805190602001908083835b6020831061241357805182526020820191506020810190506020830392506123f0565b6001836020036101000a03801982511681845116808217855250505050505090500191505090815260200160405180910390206000820151816000015560208201518160010160006101000a81548160ff021916908315150217905550905050505b81600460008c8152602001908152602001600020600082015181600001556020820151816001015560408201518160020160006101000a81548173ffffffffffffffffffffffffffffffffffffffff021916908373ffffffffffffffffffffffffffffffffffffffff16021790555060608201518160030160006101000a81548173ffffffffffffffffffffffffffffffffffffffff021916908373ffffffffffffffffffffffffffffffffffffffff1602179055506080820151816004019080519060200190612547929190615500565b5060a0820151816005019080519060200190612564929190615500565b5060c0820151816006019080519060200190612581929190615500565b5060e082015181600701908051906020019061259e929190615500565b5061010082015181600801556101208201518160090190805190602001906125c7929190615500565b5061014082015181600a0190805190602001906125e5929190615500565b5061016082015181600b0160006101000a81548160ff0219169083600a81111561260b57fe5b021790555061018082015181600b0160016101000a81548173ffffffffffffffffffffffffffffffffffffffff021916908373ffffffffffffffffffffffffffffffffffffffff1602179055506101a082015181600c0160006101000a81548173ffffffffffffffffffffffffffffffffffffffff021916908373ffffffffffffffffffffffffffffffffffffffff1602179055506101c082015181600d0160006101000a81548173ffffffffffffffffffffffffffffffffffffffff021916908373ffffffffffffffffffffffffffffffffffffffff1602179055506101e082015181600e019080519060200190612705929190615500565b5061020082015181600f019080519060200190612723929190615500565b50610220820151816010019080519060200190612741929190615500565b5061024082015181601101908051906020019061275f929190615500565b5061026082015181601201908051906020019061277d929190615500565b5061028082015181601301908051906020019061279b929190615500565b506102a08201518160140160006101000a81548160ff02191690831515021790555090505082600560008c815260200190815260200160002090805190602001906127e7929190615580565b506001600b5401600b819055507feb8109592a383473c76afa62041a6dbabac0ca80d859bbdffb13c5a70c454b908a6040518082815260200191505060405180910390a15050505050505050505050565b600061284333613afb565b61284c57600080fd5b60606128588484614f6c565b90506007816040518082805190602001908083835b60208310612890578051825260208201915060208101905060208303925061286d565b6001836020036101000a03801982511681845116808217855250505050505090500191505090815260200160405180910390206000015491505092915050565b60006004600083815260200190815260200160002060140160006101000a81548160ff02191690831515021790555050565b816009600a81111561291057fe5b60046000838152602001908152602001600020600b0160009054906101000a900460ff16600a81111561293f57fe5b1461294957600080fd5b612952336132c5565b61295b57600080fd5b600a60046000858152602001908152602001600020600b0160006101000a81548160ff0219169083600a81111561298e57fe5b02179055506060600560008581526020019081526020016000208054600181600116156101000203166002900480601f016020809104026020016040519081016040528092919081815260200182805460018160011615610100020316600290048015612a3c5780601f10612a1157610100808354040283529160200191612a3c565b820191906000526020600020905b815481529060010190602001808311612a1f57829003601f168201915b505050505090506060612a4f8285614f6c565b905080600560008781526020019081526020016000209080519060200190612a78929190615580565b507fb4cdacdf11ca5dc03f3ddd7b53e92ed9d205e79bf7c06a3f4b514b084a17bb5d856040518082815260200191505060405180910390a15050505050565b816002600a811115612ac557fe5b60046000838152602001908152602001600020600b0160009054906101000a900460ff16600a811115612af457fe5b14612afe57600080fd5b612b0733611fbb565b612b1057600080fd5b600360046000858152602001908152602001600020600b0160006101000a81548160ff0219169083600a811115612b4357fe5b02179055506060600560008581526020019081526020016000208054600181600116156101000203166002900480601f016020809104026020016040519081016040528092919081815260200182805460018160011615610100020316600290048015612bf15780601f10612bc657610100808354040283529160200191612bf1565b820191906000526020600020905b815481529060010190602001808311612bd457829003601f168201915b505050505090506060612c048285614f6c565b905080600560008781526020019081526020016000209080519060200190612c2d929190615580565b507fbf196506b2f00aa0ddfe8eb41c3c9ccfddcc58a5142960f08f9131afa7908496856040518082815260200191505060405180910390a15050505050565b6000806000606080606080612c8033613cc4565b612c8957600080fd5b6004600089815260200190815260200160002060030160009054906101000a900473ffffffffffffffffffffffffffffffffffffffff16600460008a8152602001908152602001600020600b0160019054906101000a900473ffffffffffffffffffffffffffffffffffffffff16600460008b8152602001908152602001600020600c0160009054906101000a900473ffffffffffffffffffffffffffffffffffffffff16600460008c8152602001908152602001600020600401600460008d8152602001908152602001600020600e01600460008e8152602001908152602001600020600f01600460008f8152602001908152602001600020600901838054600181600116156101000203166002900480601f016020809104026020016040519081016040528092919081815260200182805460018160011615610100020316600290048015612e1b5780601f10612df057610100808354040283529160200191612e1b565b820191906000526020600020905b815481529060010190602001808311612dfe57829003601f168201915b50505050509350828054600181600116156101000203166002900480601f016020809104026020016040519081016040528092919081815260200182805460018160011615610100020316600290048015612eb75780601f10612e8c57610100808354040283529160200191612eb7565b820191906000526020600020905b815481529060010190602001808311612e9a57829003601f168201915b50505050509250818054600181600116156101000203166002900480601f016020809104026020016040519081016040528092919081815260200182805460018160011615610100020316600290048015612f535780601f10612f2857610100808354040283529160200191612f53565b820191906000526020600020905b815481529060010190602001808311612f3657829003601f168201915b50505050509150808054600181600116156101000203166002900480601f016020809104026020016040519081016040528092919081815260200182805460018160011615610100020316600290048015612fef5780601f10612fc457610100808354040283529160200191612fef565b820191906000526020600020905b815481529060010190602001808311612fd257829003601f168201915b505050505090509650965096509650965096509650919395979092949650565b61301833615034565b565b61302381613cd8565b50565b61302f33615085565b565b61303a33613cc4565b61304357600080fd5b61304c816150d6565b50565b816000600a81111561305d57fe5b60046000838152602001908152602001600020600b0160009054906101000a900460ff16600a81111561308c57fe5b1461309657600080fd5b61309f33611fbb565b6130a857600080fd5b600160046000858152602001908152602001600020600b0160006101000a81548160ff0219169083600a8111156130db57fe5b02179055506060600560008581526020019081526020016000208054600181600116156101000203166002900480601f0160208091040260200160405190810160405280929190818152602001828054600181600116156101000203166002900480156131895780601f1061315e57610100808354040283529160200191613189565b820191906000526020600020905b81548152906001019060200180831161316c57829003601f168201915b50505050509050606061319c8285614f6c565b9050806005600087815260200190815260200160002090805190602001906131c5929190615580565b507f9b3b66e2380b690bae22c73ef1428fb0c91e72fe14a4b6defa13035214187aff856040518082815260200191505060405180910390a15050505050565b61320d33613afb565b61321657600080fd5b61321f81615127565b50565b600061322d336132c5565b61323657600080fd5b60606132428484614f6c565b90506008816040518082805190602001908083835b6020831061327a5780518252602082019150602081019050602083039250613257565b6001836020036101000a03801982511681845116808217855250505050505090500191505090815260200160405180910390206000015491505092915050565b6132c333615178565b565b60006132d2600083614eda565b9050919050565b60006132e433611fbb565b6132ed57600080fd5b60606132f98484614f6c565b90506006816040518082805190602001908083835b60208310613331578051825260208201915060208101905060208303925061330e565b6001836020036101000a03801982511681845116808217855250505050505090500191505090815260200160405180910390206000015491505092915050565b856007600a81111561337f57fe5b60046000838152602001908152602001600020600b0160009054906101000a900460ff16600a8111156133ae57fe5b146133b857600080fd5b6133c1336132c5565b6133ca57600080fd5b600860046000898152602001908152602001600020600b0160006101000a81548160ff0219169083600a8111156133fd57fe5b02179055508560046000898152602001908152602001600020600f01908051906020019061342c929190615580565b5084600460008981526020019081526020016000206013019080519060200190613457929190615580565b5083600460008981526020019081526020016000206012019080519060200190613482929190615580565b508260046000898152602001908152602001600020600c0160006101000a81548173ffffffffffffffffffffffffffffffffffffffff021916908373ffffffffffffffffffffffffffffffffffffffff1602179055506060600560008981526020019081526020016000208054600181600116156101000203166002900480601f0160208091040260200160405190810160405280929190818152602001828054600181600116156101000203166002900480156135815780601f1061355657610100808354040283529160200191613581565b820191906000526020600020905b81548152906001019060200180831161356457829003601f168201915b5050505050905060606135948285614f6c565b905080600560008b815260200190815260200160002090805190602001906135bd929190615580565b506060600460008b8152602001908152602001600020600e018054600181600116156101000203166002900480601f01602080910402602001604051908101604052809291908181526020018280546001816001161561010002031660029004801561366a5780601f1061363f5761010080835404028352916020019161366a565b820191906000526020600020905b81548152906001019060200180831161364d57829003601f168201915b505050505090506060600460008c8152602001908152602001600020600a018054600181600116156101000203166002900480601f01602080910402602001604051908101604052809291908181526020018280546001816001161561010002031660029004801561371d5780601f106136f25761010080835404028352916020019161371d565b820191906000526020600020905b81548152906001019060200180831161370057829003601f168201915b5050505050905060606137308383614f6c565b905060016007826040518082805190602001908083835b6020831061376a5780518252602082019150602081019050602083039250613747565b6001836020036101000a038019825116818451168082178552505050505050905001915050908152602001604051809103902060000154036007826040518082805190602001908083835b602083106137d857805182526020820191506020810190506020830392506137b5565b6001836020036101000a038019825116818451168082178552505050505050905001915050908152602001604051809103902060000181905550606061381e8c84614f6c565b905060016008826040518082805190602001908083835b602083106138585780518252602082019150602081019050602083039250613835565b6001836020036101000a038019825116818451168082178552505050505050905001915050908152602001604051809103902060000154016008826040518082805190602001908083835b602083106138c657805182526020820191506020810190506020830392506138a3565b6001836020036101000a0380198251168184511680821785525050505050509050019150509081526020016040518091039020600001819055507f73d6827c08a640a6959426f0ee26c7bb964902de8446b4ca6bca213740bf262f8d6040518082815260200191505060405180910390a150505050505050505050505050565b816005600a81111561395457fe5b60046000838152602001908152602001600020600b0160009054906101000a900460ff16600a81111561398357fe5b1461398d57600080fd5b61399633613afb565b61399f57600080fd5b600660046000858152602001908152602001600020600b0160006101000a81548160ff0219169083600a8111156139d257fe5b02179055506060600560008581526020019081526020016000208054600181600116156101000203166002900480601f016020809104026020016040519081016040528092919081815260200182805460018160011615610100020316600290048015613a805780601f10613a5557610100808354040283529160200191613a80565b820191906000526020600020905b815481529060010190602001808311613a6357829003601f168201915b505050505090506060613a938285614f6c565b905080600560008781526020019081526020016000209080519060200190613abc929190615580565b507fd27cf9eb13fb50222e8ff27788988edb150171b58e49b33f165418d0eb0253eb856040518082815260200191505060405180910390a15050505050565b6000613b08600383614eda565b9050919050565b816006600a811115613b1d57fe5b60046000838152602001908152602001600020600b0160009054906101000a900460ff16600a811115613b4c57fe5b14613b5657600080fd5b613b5f33613afb565b613b6857600080fd5b600760046000858152602001908152602001600020600b0160006101000a81548160ff0219169083600a811115613b9b57fe5b02179055506060600560008581526020019081526020016000208054600181600116156101000203166002900480601f016020809104026020016040519081016040528092919081815260200182805460018160011615610100020316600290048015613c495780601f10613c1e57610100808354040283529160200191613c49565b820191906000526020600020905b815481529060010190602001808311613c2c57829003601f168201915b505050505090506060613c5c8285614f6c565b905080600560008781526020019081526020016000209080519060200190613c85929190615580565b507f94d498cff24e232da4c3ed3ce9547d37faee065ef6fe670586828a6e3ccf8a53856040518082815260200191505060405180910390a15050505050565b6000613cd1600183614eda565b9050919050565b613ce36002826151c9565b8073ffffffffffffffffffffffffffffffffffffffff167f561138658ca49a8540dc70dcfe64c9026c1c5b9344642242dd6562970f9c127860405160405180910390a250565b816001600a811115613d3757fe5b60046000838152602001908152602001600020600b0160009054906101000a900460ff16600a811115613d6657fe5b14613d7057600080fd5b613d7933611fbb565b613d8257600080fd5b600260046000858152602001908152602001600020600b0160006101000a81548160ff0219169083600a811115613db557fe5b02179055506060600560008581526020019081526020016000208054600181600116156101000203166002900480601f016020809104026020016040519081016040528092919081815260200182805460018160011615610100020316600290048015613e635780601f10613e3857610100808354040283529160200191613e63565b820191906000526020600020905b815481529060010190602001808311613e4657829003601f168201915b505050505090506060613e768285614f6c565b905080600560008781526020019081526020016000209080519060200190613e9f929190615580565b507fa96ae0fc3224ebd79eebfe54bd130cc9cb94416cddd1f2386115e00b72532468856040518082815260200191505060405180910390a15050505050565b613ee7336132c5565b613ef057600080fd5b613ef981615275565b50565b816008600a811115613f0a57fe5b60046000838152602001908152602001600020600b0160009054906101000a900460ff16600a811115613f3957fe5b14613f4357600080fd5b613f4c336132c5565b613f5557600080fd5b600960046000858152602001908152602001600020600b0160006101000a81548160ff0219169083600a811115613f8857fe5b02179055506060600560008581526020019081526020016000208054600181600116156101000203166002900480601f0160208091040260200160405190810160405280929190818152602001828054600181600116156101000203166002900480156140365780601f1061400b57610100808354040283529160200191614036565b820191906000526020600020905b81548152906001019060200180831161401957829003601f168201915b5050505050905060606140498285614f6c565b905080600560008781526020019081526020016000209080519060200190614072929190615580565b507f616dfa0fd1e8003e293d0d707897c48415f6acadc960e3a8239f70841bc98c5b856040518082815260200191505060405180910390a15050505050565b816003600a8111156140bf57fe5b60046000838152602001908152602001600020600b0160009054906101000a900460ff16600a8111156140ee57fe5b146140f857600080fd5b61410133611fbb565b61410a57600080fd5b6004806000858152602001908152602001600020600b0160006101000a81548160ff0219169083600a81111561413c57fe5b02179055506060600560008581526020019081526020016000208054600181600116156101000203166002900480601f0160208091040260200160405190810160405280929190818152602001828054600181600116156101000203166002900480156141ea5780601f106141bf576101008083540402835291602001916141ea565b820191906000526020600020905b8154815290600101906020018083116141cd57829003601f168201915b5050505050905060606141fd8285614f6c565b905080600560008781526020019081526020016000209080519060200190614226929190615580565b507ff5fba10cdde0743e9e1a1208d61a8f3bea78c1dc743844aef4501affa3efd151856040518082815260200191505060405180910390a15050505050565b6000606061427233613cc4565b61427b57600080fd5b60046000848152602001908152602001600020600b0160009054906101000a900460ff1660056000858152602001908152602001600020808054600181600116156101000203166002900480601f0160208091040260200160405190810160405280929190818152602001828054600181600116156101000203166002900480156143475780601f1061431c57610100808354040283529160200191614347565b820191906000526020600020905b81548152906001019060200180831161432a57829003601f168201915b5050505050905091509150915091565b614360336152c6565b565b856004600a81111561437057fe5b60046000838152602001908152602001600020600b0160009054906101000a900460ff16600a81111561439f57fe5b146143a957600080fd5b6143b233613afb565b6143bb57600080fd5b600560046000898152602001908152602001600020600b0160006101000a81548160ff0219169083600a8111156143ee57fe5b02179055508560046000898152602001908152602001600020600e01908051906020019061441d929190615580565b5084600460008981526020019081526020016000206011019080519060200190614448929190615580565b5083600460008981526020019081526020016000206010019080519060200190614473929190615580565b508260046000898152602001908152602001600020600b0160016101000a81548173ffffffffffffffffffffffffffffffffffffffff021916908373ffffffffffffffffffffffffffffffffffffffff1602179055506060600560008981526020019081526020016000208054600181600116156101000203166002900480601f0160208091040260200160405190810160405280929190818152602001828054600181600116156101000203166002900480156145725780601f1061454757610100808354040283529160200191614572565b820191906000526020600020905b81548152906001019060200180831161455557829003601f168201915b5050505050905060606145858285614f6c565b905080600560008b815260200190815260200160002090805190602001906145ae929190615580565b506060600460008b81526020019081526020016000206004018054600181600116156101000203166002900480601f01602080910402602001604051908101604052809291908181526020018280546001816001161561010002031660029004801561465b5780601f106146305761010080835404028352916020019161465b565b820191906000526020600020905b81548152906001019060200180831161463e57829003601f168201915b505050505090506060600460008c8152602001908152602001600020600a018054600181600116156101000203166002900480601f01602080910402602001604051908101604052809291908181526020018280546001816001161561010002031660029004801561470e5780601f106146e35761010080835404028352916020019161470e565b820191906000526020600020905b8154815290600101906020018083116146f157829003601f168201915b5050505050905060606147218383614f6c565b905060016006826040518082805190602001908083835b6020831061475b5780518252602082019150602081019050602083039250614738565b6001836020036101000a038019825116818451168082178552505050505050905001915050908152602001604051809103902060000154036006826040518082805190602001908083835b602083106147c957805182526020820191506020810190506020830392506147a6565b6001836020036101000a038019825116818451168082178552505050505050905001915050908152602001604051809103902060000181905550606061480f8c84614f6c565b9050600115156007826040518082805190602001908083835b6020831061484b5780518252602082019150602081019050602083039250614828565b6001836020036101000a038019825116818451168082178552505050505050905001915050908152602001604051809103902060010160009054906101000a900460ff161515141561497c5760016007826040518082805190602001908083835b602083106148cf57805182526020820191506020810190506020830392506148ac565b6001836020036101000a038019825116818451168082178552505050505050905001915050908152602001604051809103902060000154016007826040518082805190602001908083835b6020831061493d578051825260208201915060208101905060208303925061491a565b6001836020036101000a038019825116818451168082178552505050505050905001915050908152602001604051809103902060000181905550614a38565b6149846154e4565b604051806040016040528060018152602001600115158152509050806007836040518082805190602001908083835b602083106149d657805182526020820191506020810190506020830392506149b3565b6001836020036101000a03801982511681845116808217855250505050505090500191505090815260200160405180910390206000820151816000015560208201518160010160006101000a81548160ff021916908315150217905550905050505b7f1e93508ab5b39bf9f45afa406d4ce6117c21b48d5b79372f9e599ce66210cda28d6040518082815260200191505060405180910390a150505050505050505050505050565b606080606080606080614a9033613cc4565b614a9957600080fd5b6004600088815260200190815260200160002060060160046000898152602001908152602001600020600701600460008a8152602001908152602001600020601001600460008b8152602001908152602001600020601101600460008c8152602001908152602001600020601201600460008d8152602001908152602001600020601301858054600181600116156101000203166002900480601f016020809104026020016040519081016040528092919081815260200182805460018160011615610100020316600290048015614bb25780601f10614b8757610100808354040283529160200191614bb2565b820191906000526020600020905b815481529060010190602001808311614b9557829003601f168201915b50505050509550848054600181600116156101000203166002900480601f016020809104026020016040519081016040528092919081815260200182805460018160011615610100020316600290048015614c4e5780601f10614c2357610100808354040283529160200191614c4e565b820191906000526020600020905b815481529060010190602001808311614c3157829003601f168201915b50505050509450838054600181600116156101000203166002900480601f016020809104026020016040519081016040528092919081815260200182805460018160011615610100020316600290048015614cea5780601f10614cbf57610100808354040283529160200191614cea565b820191906000526020600020905b815481529060010190602001808311614ccd57829003601f168201915b50505050509350828054600181600116156101000203166002900480601f016020809104026020016040519081016040528092919081815260200182805460018160011615610100020316600290048015614d865780601f10614d5b57610100808354040283529160200191614d86565b820191906000526020600020905b815481529060010190602001808311614d6957829003601f168201915b50505050509250818054600181600116156101000203166002900480601f016020809104026020016040519081016040528092919081815260200182805460018160011615610100020316600290048015614e225780601f10614df757610100808354040283529160200191614e22565b820191906000526020600020905b815481529060010190602001808311614e0557829003601f168201915b50505050509150808054600181600116156101000203166002900480601f016020809104026020016040519081016040528092919081815260200182805460018160011615610100020316600290048015614ebe5780601f10614e9357610100808354040283529160200191614ebe565b820191906000526020600020905b815481529060010190602001808311614ea157829003601f168201915b5050505050905095509550955095509550955091939550919395565b60008073ffffffffffffffffffffffffffffffffffffffff168273ffffffffffffffffffffffffffffffffffffffff161415614f1557600080fd5b8260000160008373ffffffffffffffffffffffffffffffffffffffff1673ffffffffffffffffffffffffffffffffffffffff16815260200190815260200160002060009054906101000a900460ff16905092915050565b606082826040516020018083805190602001908083835b60208310614fa65780518252602082019150602081019050602083039250614f83565b6001836020036101000a03801982511681845116808217855250505050505090500182805190602001908083835b60208310614ff75780518252602082019150602081019050602083039250614fd4565b6001836020036101000a03801982511681845116808217855250505050505090500192505050604051602081830303815290604052905092915050565b61503f600082615317565b8073ffffffffffffffffffffffffffffffffffffffff167f9d17ec7e57a5118cf27abf33370bcc6f007c27a9706ab4cc473a76fe552447d260405160405180910390a250565b615090600382615317565b8073ffffffffffffffffffffffffffffffffffffffff167f126174f6cf49c81cdb4a9214c6b8f037bef55b4ec31e4fc776cea2a1c8a88d5960405160405180910390a250565b6150e16001826151c9565b8073ffffffffffffffffffffffffffffffffffffffff167fa58cff07db0adda3ab7a40bd2f18ab57210bf38391a52ffd2e8eee6b8bdec71a60405160405180910390a250565b6151326003826151c9565b8073ffffffffffffffffffffffffffffffffffffffff167fddbf200aa634dc3fb81cfd68583dd1040d1c751d335e1d86b631bde3e977fea860405160405180910390a250565b615183600182615317565b8073ffffffffffffffffffffffffffffffffffffffff167f053a4badf166f01c4b02f6bcb71d2d67734470d0866282e291e73001aa25c76960405160405180910390a250565b600073ffffffffffffffffffffffffffffffffffffffff168173ffffffffffffffffffffffffffffffffffffffff16141561520357600080fd5b61520d8282614eda565b1561521757600080fd5b60018260000160008373ffffffffffffffffffffffffffffffffffffffff1673ffffffffffffffffffffffffffffffffffffffff16815260200190815260200160002060006101000a81548160ff0219169083151502179055505050565b6152806000826151c9565b8073ffffffffffffffffffffffffffffffffffffffff167f5a4264410853372bdd7255ebc9624cb523fc039cd6f9f1855165194738125f6360405160405180910390a250565b6152d1600282615317565b8073ffffffffffffffffffffffffffffffffffffffff167f2fed5abf6a80d6dfe30b4895481b2fc5d7dce5f8f7b931832f4a2947d5040c7f60405160405180910390a250565b600073ffffffffffffffffffffffffffffffffffffffff168173ffffffffffffffffffffffffffffffffffffffff16141561535157600080fd5b61535b8282614eda565b61536457600080fd5b60008260000160008373ffffffffffffffffffffffffffffffffffffffff1673ffffffffffffffffffffffffffffffffffffffff16815260200190815260200160002060006101000a81548160ff0219169083151502179055505050565b604051806102c001604052806000815260200160008152602001600073ffffffffffffffffffffffffffffffffffffffff168152602001600073ffffffffffffffffffffffffffffffffffffffff168152602001606081526020016060815260200160608152602001606081526020016000815260200160608152602001606081526020016000600a81111561545457fe5b8152602001600073ffffffffffffffffffffffffffffffffffffffff168152602001600073ffffffffffffffffffffffffffffffffffffffff168152602001600073ffffffffffffffffffffffffffffffffffffffff1681526020016060815260200160608152602001606081526020016060815260200160608152602001606081526020016000151581525090565b6040518060400160405280600081526020016000151581525090565b828054600181600116156101000203166002900490600052602060002090601f016020900481019282601f1061554157805160ff191683800117855561556f565b8280016001018555821561556f579182015b8281111561556e578251825591602001919060010190615553565b5b50905061557c9190615600565b5090565b828054600181600116156101000203166002900490600052602060002090601f016020900481019282601f106155c157805160ff19168380011785556155ef565b828001600101855582156155ef579182015b828111156155ee5782518255916020019190600101906155d3565b5b5090506155fc9190615600565b5090565b61562291905b8082111561561e576000816000905550600101615606565b5090565b9056fea265627a7a72315820366712da1cca6034a43603320dfa0e6e140232fb6a756edd62c517a65df9839564736f6c63430005100032",
  "source": "// SPDX-License-Identifier: MIT\npragma solidity >=0.4.21 <0.7.0;\nimport \"./Roles.sol\";\nimport \"./DistributorRole.sol\";\nimport \"./ManufacturerRole.sol\";\nimport \"./PatientRole.sol\";\nimport \"./PharmacistRole.sol\";\n\n\n\ncontract SimpleStorage is PharmacistRole, PatientRole,ManufacturerRole , DistributorRole  {\n\n  //debugging functions\n\n  \n\n\n  //basic functions\n\n     \n\n\n    function append(string memory a, string memory b) internal pure returns (string memory s) {\n\n    return string(abi.encodePacked(a, b));\n\n}\n\n\n\n  //Functionalities functions         \n\n   \n  struct record{\n    uint stock;\n    bool flag;\n  }\n\n\n  \n  mapping (uint => Medicine) medicines;\n  mapping (uint => string ) medicinehistory ; \n\n  //records maps\n\n\n  mapping(string => record) manufrec;\n  mapping(string => record) distrec;\n  mapping(string => record) pharmarec;\n    \n\n  address owner;\n\n  // Define a variable called 'upc' for Universal Product Code (UPC)\n  uint  upc;\n\n  // Define a variable called 'sku' for Stock Keeping Unit (SKU)\n  uint  sku;\n\n  //manufacturer events\n  event Made(uint upc);\n  event Packed(uint upc);\n  event ForSale(uint upc);\n  event Soldtodistributor(uint upc);\n  event shippedbymanufacturer(uint upc);\n  //distributor events\n  event recievedDistributor(uint upc);\n  event soldtoPharma(uint upc);\n  event shippedtoPharma(uint upc);\n  //pharma events\n  event recievedpharma(uint upc);\n  event soldtopatient(uint upc);\n  event shippedtopatient(uint upc);\n  //Patientt event \n  event Purchased(uint upc);\n\n    // Define enum 'State' with the following values:\n  enum State \n  { \n    //manufacturer states\n    Made,       // 0\n    Packed,     // 1\n    ForSale,    // 2\n    Soldtodistributor, //3\n    shippedbymanufacturer,//4\n    //distributor states\n    RecievedDistributor, //5\n    SoldtoPharma, //6\n    ShippedtoPharma,  //7\n    //Pharmacist\n    RecievedPharma, //8\n    SoldtoPatient , //9\n    ShippedtoPatient //10\n\n\n\n  }\n\n    \n\n   struct Medicine {\n    uint    sku;  // Stock Keeping Unit (SKU)\n    uint    upc; // Universal Product Code (UPC), generated by the Manufacturer, goes on the package, can be verified by the Patient\n    address ownerID;  // Metamask-Ethereum address of the current owner as the medicine moves through 8 stages\n    address originManufacturerID; // Metamask-Ethereum address of the Manufacturer\n    string  originFactoryName; // Manufacturer Name\n    string  originFactoryInformation;  // Manufacturer Information\n    string  originFactoryLatitude; // Factory Latitude\n    string  originFactoryLongitude;  // Factory Longitude\n    uint    medicineID;  // Product ID potentially a combination of upc + sku\n    string  medicineNotes; // Product Notes\n    string    medicineName; // Product Price\n    State   medicineState;  // Product State as represented in the enum above \n    address distributorID;  // Metamask-Ethereum address of the Distributor\n    address pharmacistID; // Metamask-Ethereum address of the Pharmacist\n    address patientID; // Metamask-Ethereum address of the Patient\n    string DistName;\n    string PharamaName;\n    string  DistLatitude; // Factory Latitude\n    string  DistLongitude;  // Factory Longitude\n    string  PharmaLatitude; // Factory Latitude\n    string  PharmaLongitude;  // Factory Longitude\n    bool onchain;\n  }\n\n  //modifiers for previous checking state\n  // Define a modifier that checks if an medicine.state of a upc is Made\n  modifier made(uint _upc) {\n    require(medicines[_upc].medicineState == State.Made);\n    _;\n  }\n  modifier packed(uint _upc) {\n    require(medicines[_upc].medicineState == State.Packed);\n    _;\n  }\n  modifier fsale(uint _upc) {\n    require(medicines[_upc].medicineState == State.ForSale);\n    _;\n  }\n  modifier soldtod(uint _upc) {\n    require(medicines[_upc].medicineState == State.Soldtodistributor);\n    _;\n  }\n  modifier shippedbym(uint _upc) {\n    require(medicines[_upc].medicineState == State.shippedbymanufacturer);\n    _;\n  }\n  modifier recivedD(uint _upc) {\n    require(medicines[_upc].medicineState == State.RecievedDistributor);\n    _;\n  }\n  modifier soldtoph(uint _upc) {\n    require(medicines[_upc].medicineState == State.SoldtoPharma);\n    _;\n  }\n  modifier shippedtoph(uint _upc) {\n    require(medicines[_upc].medicineState == State.ShippedtoPharma);\n    _;\n  }\n  modifier recivedPh(uint _upc) {\n    require(medicines[_upc].medicineState == State.RecievedPharma);\n    _;\n  }\n  modifier soldtop(uint _upc) {\n    require(medicines[_upc].medicineState == State.SoldtoPatient);\n    _;\n  }\n  modifier shippedtop(uint _upc) {\n    require(medicines[_upc].medicineState == State.ShippedtoPatient);\n    _;\n  }\n\n\n\n\n  function makeMedicine(string memory _name , uint _upc, address _originManufacturerID, string memory _originFactoryName, string memory _originFactoryInformation, string  memory _originFactoryLatitude, string  memory _originFactoryLongitude, string  memory _medicineNotes, string memory _history) public  onlyManufacturer {\n    // Add the new medicine as part of medicines\n    Medicine memory temp_medicine = Medicine({\n      sku:sku + 1,\n      upc:_upc,\n      ownerID:_originManufacturerID,\n      originManufacturerID:_originManufacturerID,\n      originFactoryName:_originFactoryName,\n      originFactoryInformation:_originFactoryInformation,\n      originFactoryLatitude:_originFactoryLatitude,\n      originFactoryLongitude:_originFactoryLongitude,\n      medicineID:sku+_upc,\n      medicineNotes:_medicineNotes,\n      medicineState:State.Made,\n      medicineName: _name,\n      distributorID:address(0),\n      pharmacistID:address(0),\n      patientID:address(0),\n      DistName: \" \",\n      PharamaName :\" \",\n      DistLongitude : \" \",\n      DistLatitude : \" \",\n      PharmaLatitude : \" \",\n      PharmaLongitude  : \" \",\n      onchain : true\n      });\n\n      string memory manustr = append(_originFactoryName,_name);\n      if(manufrec[manustr].flag == true){\n          manufrec[manustr].stock = manufrec[manustr].stock + 1;\n      }\n      else{\n          record memory r = record({\n              stock : 1,\n              flag : true\n          });\n          manufrec[manustr] = r;\n      }\n \n \n\n    //string storage initial_history=\"This med is made by date will be passed by frontend\" ;\n    medicines[_upc] = temp_medicine;\n    medicinehistory[_upc]  =_history;\n\n   // Increment sku\n    sku = sku + 1;\n    // Emit the appropriate event\n\n     emit Made(_upc);\n  }\n\n \n\n\n\n  // function makeMedicine(uint _upc,uint _price ,string memory _name) public {\n  //     Medicine memory temp_medicine = Medicine({\n  //         upc : _upc,\n  //         price : _price,\n  //         name : _name\n  //     });\n  //     medicines[_upc] = temp_medicine;\n\n  // }\n\n  //manufacturer sub events\n\n\n  function checkstockmanuf (string memory _manuname,string memory _name) public view  onlyManufacturer returns (uint)  {\n \n    string memory manustr = append(_manuname,_name);\n    return manufrec[manustr].stock;\n  }\n\n\n  function checkstockdist (string memory _distname,string memory _name) public view  onlyDistributor returns (uint)  {\n     \n    string memory diststr = append(_distname,_name);\n    return distrec[diststr].stock;\n  }\n\n  function checkstockpharma (string memory _pharmaname ,string memory _name) public view  onlyPharmacist returns (uint)  {\n  \n    string memory pharmastr = append(_pharmaname,_name);\n    return pharmarec[pharmastr].stock;\n  }\n\n\n  function packMedicine(uint _upc,string memory _history) public made(_upc) onlyManufacturer {\n  // // Call modifier to check if upc has passed previous supply chain stage\n  // Made(_upc);\n  // Call modifier to verify caller of this function\n  \n    // Update the appropriate fields\n    medicines[_upc].medicineState = State.Packed;\n    // string memory prevhis = medicinehistory[_upc];\n    //string  memory t1= concatenate(prevhis,_history);\n     string memory prevhis = medicinehistory[_upc];\n     string memory temp =  append(prevhis,_history);\n     medicinehistory[_upc]= temp;\n\n\n\n   // string memory history = medicinehistory[_upc];\n    //history = history + \" packed by manufacturer on date____\";\n    //medicinehistory[_upc] = history;\n    // Emit the appropriate event\n    emit Packed(_upc);\n  }\n\n   function forSale_bymanuf(uint _upc,string memory _history) public  packed(_upc) onlyManufacturer{\n  // // Call modifier to check if upc has passed previous supply chain stage\n  // Made(_upc);\n  // Call modifier to verify caller of this function\n  \n    // Update the appropriate fields\n    medicines[_upc].medicineState = State.ForSale;\n   // string memory history = medicinehistory[_upc];\n    //history = history + \" packed by manufacturer on date____\";\n    //medicinehistory[_upc] = history;\n    \n    string memory prevhis = medicinehistory[_upc];\n     string memory temp =  append(prevhis,_history);\n     medicinehistory[_upc]= temp;\n    // Emit the appropriate event\n\n    emit ForSale(_upc);\n  }\n\n   function soldToDistributor(uint _upc,string memory _history) public fsale(_upc) onlyManufacturer{\n  // // Call modifier to check if upc has passed previous supply chain stage\n  // Made(_upc);\n  // Call modifier to verify caller of this function\n  \n    // Update the appropriate fields\n    medicines[_upc].medicineState = State.Soldtodistributor;\n   // string memory history = medicinehistory[_upc];\n    //history = history + \" packed by manufacturer on date____\";\n    //medicinehistory[_upc] = history;\n    string memory prevhis = medicinehistory[_upc];\n     string memory temp =  append(prevhis,_history);\n     medicinehistory[_upc]= temp;\n    // Emit the appropriate event\n    emit Soldtodistributor(_upc);\n  }\n\n\n\n\n function shippedByManufacturer(uint _upc,string memory _history) public soldtod(_upc) onlyManufacturer{\n  // // Call modifier to check if upc has passed previous supply chain stage\n  // Made(_upc);\n  // Call modifier to verify caller of this function\n  \n    // Update the appropriate fields\n    medicines[_upc].medicineState = State.shippedbymanufacturer;\n   // string memory history = medicinehistory[_upc];\n    //history = history + \" packed by manufacturer on date____\";\n    //medicinehistory[_upc] = history;\n    // Emit the appropriate event\n    string memory prevhis = medicinehistory[_upc];\n     string memory temp =  append(prevhis,_history);\n     medicinehistory[_upc]= temp;\n    emit shippedbymanufacturer(_upc);\n  }\n\n  //distributor controlled functions\n\n\n\n  function RecievedDistributor(uint _upc,string memory _name,string memory _long,string memory _lat,address _address,string memory _history) public shippedbym(_upc) onlyDistributor{\n  // // Call modifier to check if upc has passed previous supply chain stage\n  // Made(_upc);\n  // Call modifier to verify caller of this function\n  \n    // Update the appropriate fields\n\n\n     \n      medicines[_upc].medicineState = State.RecievedDistributor;\n      medicines[_upc].DistName = _name;\n      medicines[_upc].DistLongitude = _long;\n      medicines[_upc].DistLatitude = _lat;\n      medicines[_upc].distributorID = _address;\n   // string memory history = medicinehistory[_upc];\n    //history = history + \" packed by manufacturer on date____\";\n    //medicinehistory[_upc] = history;\n    string memory prevhis = medicinehistory[_upc];\n     string memory temp =  append(prevhis,_history);\n     medicinehistory[_upc]= temp;\n     string memory manuf = medicines[_upc].originFactoryName;\n     string memory medname =  medicines[_upc].medicineName;\n     string memory manustr = append(manuf,medname);\n     manufrec[manustr].stock = manufrec[manustr].stock - 1;\n\n     string memory diststr = append(_name,medname);\n      if(distrec[diststr].flag == true){\n          distrec[diststr].stock = distrec[diststr].stock + 1;\n      }\n      else{\n          record memory r = record({\n              stock : 1,\n              flag : true\n          });\n          distrec[diststr] = r;\n      }\n\n\n    // Emit the appropriate event\n    emit recievedDistributor(_upc);\n  }\n  function SoldtoPharma(uint _upc , string memory _history) public recivedD(_upc) onlyDistributor{\n  // // Call modifier to check if upc has passed previous supply chain stage\n  // Made(_upc);\n  // Call modifier to verify caller of this function\n  \n    // Update the appropriate fields\n    medicines[_upc].medicineState = State.SoldtoPharma;\n   // string memory history = medicinehistory[_upc];\n    //history = history + \" packed by manufacturer on date____\";\n    //medicinehistory[_upc] = history;\n    string memory prevhis = medicinehistory[_upc];\n     string memory temp =  append(prevhis,_history);\n     medicinehistory[_upc]= temp;\n    // Emit the appropriate event\n    emit soldtoPharma(_upc);\n  }\n  function ShippedtoPharma(uint _upc, string memory _history) public soldtoph(_upc) onlyDistributor{\n  // // Call modifier to check if upc has passed previous supply chain stage\n  // Made(_upc);\n  // Call modifier to verify caller of this function\n  \n    // Update the appropriate fields\n    medicines[_upc].medicineState = State.ShippedtoPharma;\n   // string memory history = medicinehistory[_upc];\n    //history = history + \" packed by manufacturer on date____\";\n    //medicinehistory[_upc] = history;\n    string memory prevhis = medicinehistory[_upc];\n     string memory temp =  append(prevhis,_history);\n     medicinehistory[_upc]= temp;\n    // Emit the appropriate event\n    emit shippedtoPharma(_upc);\n  }\n\n\n  //Pharmacist functions \n\n  function Recieved_Pharma(uint _upc,string memory _name,string memory _long,string memory _lat,address _address,string memory _history) public shippedtoph(_upc) onlyPharmacist{\n  // // Call modifier to check if upc has passed previous supply chain stage\n  // Made(_upc);\n  // Call modifier to verify caller of this function\n  \n    // Update the appropriate fields\n    medicines[_upc].medicineState = State.RecievedPharma;\n    medicines[_upc].PharamaName = _name;\n      medicines[_upc].PharmaLongitude= _long;\n      medicines[_upc].PharmaLatitude = _lat;\n      medicines[_upc].pharmacistID = _address;\n   // string memory history = medicinehistory[_upc];\n    //history = history + \" packed by manufacturer on date____\";\n    //medicinehistory[_upc] = history;\n     string memory prevhis = medicinehistory[_upc];\n     string memory temp =  append(prevhis,_history);\n     medicinehistory[_upc]= temp;\n\n     string memory distname  = medicines[_upc].DistName;\n     string memory medname = medicines[_upc].medicineName;\n     string memory diststr = append(distname , medname);\n     distrec[diststr].stock = distrec[diststr].stock - 1;\n     string memory pharmastr = append(_name,medname);\n     pharmarec[pharmastr].stock = pharmarec[pharmastr].stock + 1;\n\n\n\n    \n    // Emit the appropriate event\n    emit recievedpharma(_upc);\n  }\n  function Sold_to_Patient(uint _upc,string memory _history) public recivedPh(_upc) onlyPharmacist{\n  // // Call modifier to check if upc has passed previous supply chain stage\n  // Made(_upc);\n  // Call modifier to verify caller of this function\n  \n    // Update the appropriate fields\n    medicines[_upc].medicineState = State.SoldtoPatient;\n   // string memory history = medicinehistory[_upc];\n    //history = history + \" packed by manufacturer on date____\";\n    //medicinehistory[_upc] = history;\n     string memory prevhis = medicinehistory[_upc];\n     string memory temp =  append(prevhis,_history);\n     medicinehistory[_upc]= temp;\n    // Emit the appropriate event\n    emit soldtopatient(_upc);\n  }\n  function Shipped_to_Patient(uint _upc,string memory _history) public soldtop(_upc) onlyPharmacist{\n  // // Call modifier to check if upc has passed previous supply chain stage\n  // Made(_upc);\n  // Call modifier to verify caller of this function\n  \n    // Update the appropriate fields\n    medicines[_upc].medicineState = State.ShippedtoPatient;\n   // string memory history = medicinehistory[_upc];\n    //history = history + \" packed by manufacturer on date____\";\n    //medicinehistory[_upc] = history;\n     string memory prevhis = medicinehistory[_upc];\n     string memory temp =  append(prevhis,_history);\n     medicinehistory[_upc]= temp;\n    // Emit the appropriate event\n    emit shippedtopatient(_upc);\n  }\n\n  function checkmedicine(uint _upc) public view returns(bool){\n      if(medicines[_upc].onchain == true){\n        return true;\n      }\n      else{\n        return false;\n      }\n  }\n\n  function claim(uint _upc) public {\n      medicines[_upc].onchain = false;\n  }\n\n  function fetchstate(uint _upc) public view onlyPatient returns (State _medicineState,string memory _history) {\n    return (\n      medicines[_upc].medicineState,\n      medicinehistory[_upc]\n      );\n  }\n\n   function fetchCordinates(uint _upc) public view onlyPatient returns (string memory manfcodlat,string memory manfcodlong,string memory distcodlat,string memory distcodlong,string memory phcodlat,string memory phcodlong) {\n    return (\n      medicines[_upc].originFactoryLatitude,\n      medicines[_upc].originFactoryLongitude,\n      medicines[_upc].DistLatitude,\n      medicines[_upc].DistLongitude,\n      medicines[_upc].PharmaLatitude,\n      medicines[_upc].PharmaLongitude\n      );\n  }\n\n  \n\n  function fetchMedicine(uint _upc) public view onlyPatient returns (address mid,address did,address pid,string memory mname,string memory dname,string memory pname,string memory mnotes) {\n    return(\n\n\n    \n     medicines[_upc].originManufacturerID, // Metamask-Ethereum address of the Manufacturer\n     medicines[_upc].distributorID,  // Metamask-Ethereum address of the Distributor\n     medicines[_upc].pharmacistID, // Metamask-Ethereum address of the Pharmacist\n     medicines[_upc].originFactoryName, // Manufacturer Name\n     medicines[_upc].DistName,\n     medicines[_upc].PharamaName, \n     medicines[_upc].medicineNotes // Product Notes\n    \n    \n           \n    );\n  }\n\n}\n",
  "sourcePath": "c:\\Users\\asus\\Desktop\\Capstone_final-master1\\Capstone_final-master\\contracts\\SimpleStorage.sol",
  "compiler": {
    "name": "solc",
    "version": "0.5.16+commit.9c3226ce.Emscripten.clang"
  },
  "schemaVersion": "3.4.11",
  "updatedAt": "2022-12-20T05:16:06.195Z",
  "devdoc": {
    "methods": {}
  },
  "userdoc": {
    "methods": {}
  }
}